{
  "contractName": "Switch",
  "abi": [
    {
      "anonymous": false,
      "inputs": [
        {
          "indexed": false,
          "internalType": "string",
          "name": "name",
          "type": "string"
        },
        {
          "indexed": false,
          "internalType": "string",
          "name": "documentHash",
          "type": "string"
        }
      ],
      "name": "addedData",
      "type": "event"
    },
    {
      "constant": true,
      "inputs": [
        {
          "internalType": "uint256",
          "name": "",
          "type": "uint256"
        }
      ],
      "name": "lookUp",
      "outputs": [
        {
          "internalType": "string",
          "name": "name",
          "type": "string"
        },
        {
          "internalType": "string",
          "name": "documentHash",
          "type": "string"
        }
      ],
      "payable": false,
      "stateMutability": "view",
      "type": "function"
    },
    {
      "constant": false,
      "inputs": [
        {
          "internalType": "string",
          "name": "_name",
          "type": "string"
        },
        {
          "internalType": "string",
          "name": "_documentHash",
          "type": "string"
        }
      ],
      "name": "addData",
      "outputs": [
        {
          "internalType": "bool",
          "name": "",
          "type": "bool"
        }
      ],
      "payable": false,
      "stateMutability": "nonpayable",
      "type": "function"
    }
  ],
  "bytecode": "0x60806040526000805534801561001457600080fd5b5061064d806100246000396000f3fe608060405234801561001057600080fd5b50600436106100365760003560e01c8063528407e51461003b578063eedf601014610121575b600080fd5b6101076004803603604081101561005157600080fd5b810190808035906020019064010000000081111561006e57600080fd5b82018360208201111561008057600080fd5b803590602001918460018302840111640100000000831117156100a257600080fd5b9091929391929390803590602001906401000000008111156100c357600080fd5b8201836020820111156100d557600080fd5b803590602001918460018302840111640100000000831117156100f757600080fd5b9091929391929390505050610234565b604051808215151515815260200191505060405180910390f35b61014d6004803603602081101561013757600080fd5b81019080803590602001909291905050506103f8565b604051808060200180602001838103835285818151815260200191508051906020019080838360005b83811015610191578082015181840152602081019050610176565b50505050905090810190601f1680156101be5780820380516001836020036101000a031916815260200191505b50838103825284818151815260200191508051906020019080838360005b838110156101f75780820151818401526020810190506101dc565b50505050905090810190601f1680156102245780820380516001836020036101000a031916815260200191505b5094505050505060405180910390f35b600061023e610559565b85858080601f016020809104026020016040519081016040528093929190818152602001838380828437600081840152601f19601f82011690508083019250505050505050816000018190525083838080601f016020809104026020016040519081016040528093929190818152602001838380828437600081840152601f19601f820116905080830192505050505050508160200181905250600181908060018154018082558091505090600182039060005260206000209060020201600090919290919091506000820151816000019080519060200190610322929190610573565b50602082015181600101908051906020019061033f929190610573565b5050505060008081548092919060010191905055507f59ec6f88ff21c824a2a4b0337ce4622ee369a27292f5303fca5aa10cafaefd44868686866040518080602001806020018381038352878782818152602001925080828437600081840152601f19601f8201169050808301925050508381038252858582818152602001925080828437600081840152601f19601f820116905080830192505050965050505050505060405180910390a16001915050949350505050565b6001818154811061040557fe5b9060005260206000209060020201600091509050806000018054600181600116156101000203166002900480601f0160208091040260200160405190810160405280929190818152602001828054600181600116156101000203166002900480156104b15780601f10610486576101008083540402835291602001916104b1565b820191906000526020600020905b81548152906001019060200180831161049457829003601f168201915b505050505090806001018054600181600116156101000203166002900480601f01602080910402602001604051908101604052809291908181526020018280546001816001161561010002031660029004801561054f5780601f106105245761010080835404028352916020019161054f565b820191906000526020600020905b81548152906001019060200180831161053257829003601f168201915b5050505050905082565b604051806040016040528060608152602001606081525090565b828054600181600116156101000203166002900490600052602060002090601f016020900481019282601f106105b457805160ff19168380011785556105e2565b828001600101855582156105e2579182015b828111156105e15782518255916020019190600101906105c6565b5b5090506105ef91906105f3565b5090565b61061591905b808211156106115760008160009055506001016105f9565b5090565b9056fea265627a7a72315820a319fd1d63f914dfeeec215ed80fd94c73b7dd1ab2b1b0c355bc3937af4ff09164736f6c63430005100032",
  "source": "pragma solidity >=0.5.16;\n\ncontract Switch{\n    struct data{\n        string name;\n        string documentHash;\n    }\n    uint256 id = 0;\n    data[] public lookUp;\n    \n    event addedData(string name, string documentHash);\n    \n    function addData(string calldata _name, string calldata _documentHash) external returns(bool){\n        data memory d;\n        d.name = _name;\n        d.documentHash = _documentHash;\n        lookUp.push(d);\n        id++;\n        \n        emit addedData(_name, _documentHash);\n        return true;\n    }\n}",
  "sourcePath": "/home/puter/Projects/WhakdBot/contracts/Switch.sol",
  "compiler": {
    "name": "solc",
    "version": "0.5.16+commit.9c3226ce.Emscripten.clang"
  },
  "schemaVersion": "3.4.1",
  "updatedAt": "2021-07-06T17:08:18.743Z",
  "networkType": "ethereum",
  "devdoc": {
    "methods": {}
  },
  "userdoc": {
    "methods": {}
  }
}